S0150000456D4170706C69636174696F6E2E73726563E9
S11300000C9434000C9470010C9446000C949501EB
S11300100C9446000C9446000C9446000C94460044
S11300200C9446000C9446000C9446000C94460034
S11300300C9446000C9448000C9446000C94460022
S11300400C949F010C9446000C9446000C944600BA
S11300500C9446000C9446000C9446000C94460004
S11300600C9446000C94460011241FBECFEFD8E038
S1130070DEBFCDBF21E0A0E0B1E001C01D92AD33F1
S1130080B207E1F70E9456020C946C020C94000033
S11300901F920F920FB60F9211240F931F932F9359
S11300A03F934F935F936F937F938F939F93AF93FC
S11300B0BF93CF93DF93EF93FF93C0E0D0E030C0C2
S11300C08BE08C9FF0018D9FF00D1124EA5FFE4FB1
S11300D08085813021F58BE08C9FF0018D9FF00DA0
S11300E01124EA5FFE4F84819581A681B78101972F
S11300F0A109B10984839583A683B78384819581FB
S1130100A681B781892B8A2B8B2B49F4F8948F0114
S11301100184F285E02D0995F801108678942196E2
S1130120C530D1056CF2FF91EF91DF91CF91BF9172
S1130130AF919F918F917F916F915F914F913F917B
S11301402F911F910F910F900FBE0F901F90189534
S1130150EFE6F0E0808181608083E1E8F0E0808177
S11301608B7F8083808182608083808181608083B3
S113017086E09FEF909385008093840080E090E078
S113018014C02BE0289FF001299FF00D1124EA5F91
S1130190FE4F1082118212821382148215821682FB
S11301A017821086128611860196853091054CF3CC
S11301B008950F931F93062F10E020E030E06BE0CA
S11301C0869FC0011124FC01EA5FFE4F0083118366
S11301D022833383528741871F910F910895E6E06C
S11301E0F1E043855485658576854787508B618B1F
S11301F0728B2BE0829FC0011124FC01EA5FFE4F49
S113020081E0808708952BE0829FC0011124FC01C6
S1130210EA5FFE4F108211821282138214821582C9
S1130220168217821086128611860895E9E6F0E098
S11302308081836080838DB381608DBB85B585604B
S113024085BD85B58D7F85BDEEE6F0E0808181605A
S11302508083089584B58E7F84BD84B58D7F84BDED
S113026085B5877F85BD84B58F7B84BD84B58F7745
S113027084BD089584B1876084B98AB188688AB9D5
S113028085B18D7F85B985B18E7F85B985B18B7F29
S113029085B98BB18F778BB98BB1877F8BB98AB1D5
S11302A08F7B8AB98BB180648BB98BB184608BB935
S11302B0089590910101892B8093010108959091F3
S11302C00101809598239093010108959091010173
S11302D0892319F081E090E0089580E090E008958A
S11302E01F920F920FB60F9211242F933F934F93A7
S11302F05F936F937F938F939F93AF93BF93EF938A
S1130300FF9381E00E945901FF91EF91BF91AF915A
S11303109F918F917F916F915F914F913F912F9119
S11303200F900FBE0F901F9018951F920F920FB64B
S11303300F9211240F900FBE0F901F9018951F92CB
S11303400F920FB60F9211248F939F938091000107
S11303508F5F80930001809100018D3330F09BB159
S113036088E089278BB9109200019F918F910F909B
S11303700FBE0F901F901895892B49F081E090E0F3
S1130380909303018093020180E090E008958091AE
S1130390020190910301019739F480910201909137
S11303A0030181E090E0089580910201909103019E
S11303B080E090E0089580FF04C095B1926095B903
S11303C003C095B19D7F95B981FF04C095B191603B
S11303D095B903C095B19E7F95B982FF04C08BB1D6
S11303E080688BB908958BB18F778BB9089581E0BC
S11303F00E946601892B21F08BB188608BB903C000
S11304008BB1877F8BB989B1807490E00E94BC0165
S1130410019719F481E00E945F0181E00E94660166
S1130420892B21F585B1846085B98091040190916F
S11304300501089780F480910401909105010E94C0
S1130440DB018091040190910501019690930501CF
S1130450809304011EC080910401909105010E94C3
S1130460DB01109205011092040113C085B18D7F48
S113047085B985B18E7F85B98BB18F778BB985B1FD
S11304808B7F85B98BB184608BB910920501109272
S1130490040181E00E94EF002FEF85EA9EE02150E5
S11304A080409040E1F700C0000008950E943A01A6
S11304B00E94160178940E942A010E94A80047EF26
S11304C051E068EE80E00E94D90081E00E94EF00D4
S10F04D081E00E940301F9CFF894FFCFF3
S9030000FC
