S01700004763634170706C69636174696F6E362E7372656356
S11300000C9434000C9491000C9446000C94B600AB
S11300100C9446000C9446000C9446000C94460044
S11300200C9446000C9446000C9446000C94460034
S11300300C9446000C9446000C9446000C94460024
S11300400C94C0000C9446000C9446000C9446009A
S11300500C9446000C9446000C9446000C94460004
S11300600C9446000C94460011241FBECFEFD8E038
S1130070DEBFCDBF21E0A0E0B1E001C01D92A230FF
S1130080B207E1F70E94DD000C94E5000C94000037
S1130090E9E6F0E08081836080838DB381608DBB6D
S11300A085B5856085BD85B58D7F85BDEEE6F0E0BF
S11300B0808181608083089584B58E7F84BD84B5FA
S11300C08D7F84BD85B5877F85BD84B58F7B84BDD9
S11300D084B58F7784BD089584B1876084B98AB16B
S11300E088688AB985B18D7F85B985B18E7F85B9D8
S11300F085B18B7F85B98BB18F778BB98BB1877FB6
S11301008BB98AB18F7B8AB98BB180648BB98BB17F
S113011084608BB9089590910101892B809301012A
S113012008951F920F920FB60F9211242F933F93AD
S11301304F935F936F937F938F939F93AF93BF93EB
S1130140EF93FF9381E00E948B00FF91EF91BF91A9
S1130150AF919F918F917F916F915F914F913F915B
S11301602F910F900FBE0F901F9018951F920F9212
S11301700FB60F9211240F900FBE0F901F90189579
S11301801F920F920FB60F9211248F939F93809119
S113019000018F5F80930001809100018D3330F066
S11301A09BB188E089278BB9109200019F918F91B0
S11301B00F900FBE0F901F9018950E946C000E9424
S11101C0480078940E945C00FFCFF894FFCFB3
S9030000FC
